:020000040800F2
:1000000000000520F99F000849A0000849A0000849
:1000100049A0000849A0000849A00008000000000D
:10002000000000000000000000000000059F000824
:10003000139F000800000000219F00082F9F000868
:1000400049A0000849A0000849A0000849A00008EC
:1000500049A0000849A0000849A0000849A00008DC
:1000600049A0000849A0000849A0000849A00008CC
:1000700049A0000849A0000849A0000849A00008BC
:1000800049A0000849A0000849A0000849A00008AC
:1000900049A0000849A0000849A0000849A000089C
:1000A00049A0000849A0000849A0000849A000088C
:1000B00049A0000849A0000849A0000849A000087C
:1000C00049A0000849A0000849A0000849A000086C
:1000D00049A0000849A0000849A0000849A000085C
:1000E00049A0000849A0000849A0000849A000084C
:1000F00049A0000849A0000849A0000849A000083C
:1001000049A0000849A0000849A0000849A000082B
:1001100049A0000849A000083D9F000849A0000828
:1001200049A0000849A0000849A0000849A000080B
:1001300049A0000849A0000849A0000849A00008FB
:1001400049A0000849A0000849A0000849A00008EB
:1001500049A0000849A0000849A0000849A00008DB
:1001600049A0000849A0000849A0000849A00008CB
:1001700049A0000849A0000849A0000800000000AC
:1001800049A0000849A0000849A0000849A00008AB
:1001900049A0000849A0000849A0000849A000089B
:1001A000519F0008659F0008799F000849A000083A
:1001B00049A0000849A0000849A0000849A000087B
:0801C00049A0000849A0000855
:1001C80010B5054C237833B9044B13B10448AFF389
:1001D80000800123237010BD88C9022000000000A0
:1001E80094A0000808B5034B1BB103490348AFF3BB
:1001F800008008BD000000008CC9022094A00008FF
:1002080081F0004102E000BF83F0004330B54FEABF
:1002180041044FEA430594EA050F08BF90EA020F2C
:100228001FBF54EA000C55EA020C7FEA645C7FEABF
:10023800655C00F0E2804FEA5454D4EB5555B8BFE2
:100248006D420CDD2C4480EA020281EA030382EA53
:10025800000083EA010180EA020281EA0303362DE5
:1002680088BF30BD11F0004F4FEA01314FF4801CB8
:100278004CEA113102D0404261EB410113F0004FCA
:100288004FEA03334CEA133302D0524263EB430381
:1002980094EA050F00F0A780A4F10104D5F1200E1F
:1002A8000DDB02FA0EFC22FA05F2801841F100017A
:1002B80003FA0EF2801843FA05F359410EE0A5F14E
:1002C80020050EF1200E012A03FA0EFC28BF4CF07F
:1002D800020C43FA05F3C01851EBE37101F0004535
:1002E80007D54FF0000EDCF1000C7EEB00006EEB42
:1002F8000101B1F5801F1BD3B1F5001F0CD34908CC
:100308005FEA30004FEA3C0C04F101044FEA445222
:1003180012F5800F80F09A80BCF1004F08BF5FEAA9
:10032800500C50F1000041EB045141EA050130BD89
:100338005FEA4C0C404141EB010111F4801FA4F12C
:100348000104E9D191F0000F04BF01460020B1FA81
:1003580081F308BF2033A3F10B03B3F120020CDAB9
:100368000C3208DD02F1140CC2F10C0201FA0CF097
:1003780021FA02F10CE002F11402D8BFC2F1200CFC
:1003880001FA02F120FA0CFCDCBF41EA0C019040B2
:10039800E41AA2BF01EB0451294330BD6FEA0404FB
:1003A8001F3C1CDA0C340EDC04F11404C4F12002E6
:1003B80020FA04F001FA02F340EA030021FA04F3F8
:1003C80045EA030130BDC4F10C04C4F1200220FA4F
:1003D80002F001FA04F340EA0300294630BD21FA8D
:1003E80004F0294630BD94F0000F83F4801306BF53
:1003F80081F480110134013D4EE77FEA645C18BF47
:100408007FEA655C29D094EA050F08BF90EA020FDD
:1004180005D054EA000C04BF1946104630BD91EAD5
:10042800030F1EBF0021002030BD5FEA545C05D1D8
:100438004000494128BF41F0004130BD14F5800417
:100448003CBF01F5801130BD01F0004545F0FE418B
:1004580041F470014FF0000030BD7FEA645C1ABFC0
:10046800194610467FEA655C1CBF0B46024650EAF7
:10047800013406BF52EA033591EA030F41F4002123
:1004880030BD00BF90F0000F04BF0021704730B5A9
:100498004FF4806404F132044FF000054FF000017E
:1004A80050E700BF90F0000F04BF0021704730B53F
:1004B8004FF4806404F1320410F0004548BF404214
:1004C8004FF000013EE700BF42004FEAE2014FEA69
:1004D80031014FEA02701FBF12F07F4393F07F4F44
:1004E80081F06051704792F0000F14BF93F07F4F76
:1004F800704730B54FF4607401F0004521F00041B9
:1005080020E700BF50EA010208BF704730B54FF03E
:1005180000050AE050EA010208BF704730B511F043
:10052800004502D5404261EB41014FF4806404F17B
:1005380032045FEA915C3FF4DCAE4FF003025FEAFD
:10054800DC0C18BF03325FEADC0C18BF033202EB85
:10055800DC02C2F1200300FA03FC20FA02F001FADF
:1005680003FE40EA0E0021FA02F11444C1E600BF7E
:1005780070B54FF0FF0C4CF4E06C1CEA11541DBF31
:100588001CEA135594EA0C0F95EA0C0F00F0DEF8FC
:100598002C4481EA030621EA4C5123EA4C5350EAE1
:1005A800013518BF52EA033541F4801143F4801332
:1005B80038D0A0FB02CE4FF00005E1FB02E506F0C3
:1005C8000042E0FB03E54FF00006E1FB03569CF018
:1005D800000F18BF4EF0010EA4F1FF04B6F5007F1E
:1005E80064F5407404D25FEA4E0E6D4146EB060690
:1005F80042EAC62141EA55514FEAC52040EA5E5019
:100608004FEACE2EB4F1FD0C88BFBCF5E06F1ED8C2
:10061800BEF1004F08BF5FEA500E50F1000041EBF9
:10062800045170BD06F0004646EA010140EA0200A6
:1006380081EA0301B4EB5C04C2BFD4EB0C0541EAC8
:10064800045170BD41F480114FF0000E013C00F3DD
:10065800AB8014F1360FDEBF002001F0004170BD01
:10066800C4F10004203C35DA0C341BDC04F114041A
:10067800C4F1200500FA05F320FA04F001FA05F2A6
:1006880040EA020001F0004221F0004110EBD37073
:1006980021FA04F642EB06015EEA430E08BF20EA9F
:1006A800D37070BDC4F10C04C4F1200500FA04F342
:1006B80020FA05F001FA04F240EA020001F00041D4
:1006C80010EBD37041F100015EEA430E08BF20EA47
:1006D800D37070BDC4F1200500FA05F24EEA020E8F
:1006E80020FA04F301FA05F243EA020321FA04F0BE
:1006F80001F0004121FA04F220EA020000EBD37075
:100708005EEA430E08BF20EAD37070BD94F0000F74
:100718000FD101F00046400041EB010111F4801FA8
:1007280008BF013CF7D041EA060195F0000F18BF59
:10073800704703F00046520043EB030313F4801F95
:1007480008BF013DF7D043EA0603704794EA0C0F4F
:100758000CEA135518BF95EA0C0F0CD050EA410665
:1007680018BF52EA4306D1D181EA030101F00041E2
:100778004FF0000070BD50EA410606BF104619460A
:1007880052EA430619D094EA0C0F02D150EA013616
:1007980013D195EA0C0F05D152EA03361CBF104657
:1007A80019460AD181EA030101F0004141F0FE41F6
:1007B80041F470014FF0000070BD41F0FE4141F47A
:1007C800780170BD70B54FF0FF0C4CF4E06C1CEA7A
:1007D80011541DBF1CEA135594EA0C0F95EA0C0F2F
:1007E80000F0A7F8A4EB050481EA030E52EA0335EA
:1007F8004FEA013100F088804FEA03334FF080550B
:1008080045EA131343EA12634FEA022245EA111537
:1008180045EA10654FEA00260EF000419D4208BFE8
:10082800964244F1FD0404F5407402D25B084FEA95
:100838003202B61A65EB03055B084FEA32024FF441
:1008480080104FF4002CB6EB020E75EB030E22BF9E
:10085800B61A754640EA0C005B084FEA3202B6EB5E
:10086800020E75EB030E22BFB61A754640EA5C000D
:100878005B084FEA3202B6EB020E75EB030E22BF9D
:10088800B61A754640EA9C005B084FEA3202B6EB9E
:10089800020E75EB030E22BFB61A754640EADC005D
:1008A80055EA060E18D04FEA051545EA16754FEABF
:1008B80006164FEAC30343EA52734FEAC2025FEADD
:1008C8001C1CC0D111F4801F0BD141EA00014FF06C
:1008D80000004FF0004CB6E711F4801F04BF01433D
:1008E8000020B4F1FD0C88BFBCF5E06F3FF6AFAE59
:1008F800B5EB030C04BFB6EB020C5FEA500C50F1E9
:10090800000041EB045170BD0EF0004E4EEA11316B
:1009180014EB5C04C2BFD4EB0C0541EA045170BD72
:1009280041F480114FF0000E013C90E645EA060EB6
:100938008DE60CEA135594EA0C0F08BF95EA0C0FE4
:100948003FF43BAF94EA0C0F0AD150EA01347FF42C
:1009580034AF95EA0C0F7FF425AF104619462CE703
:1009680095EA0C0F06D152EA03353FF4FDAE104666
:10097800194622E750EA410618BF52EA43067FF4B7
:10098800C5AE50EA41047FF40DAF52EA43057FF447
:10099800EBAE12E74FEA410212F5001215D211D55B
:1009A8006FF47873B3EB625212D94FEAC12343F064
:1009B800004343EA505311F0004F23FA02F018BFE6
:1009C800404270474FF00000704750EA013005D1AF
:1009D80011F0004008BF6FF0004070474FF0000072
:1009E800704700BF53B94AB9002908BF00281CBF87
:1009F8004FF0FF314FF0FF3000F07AB9ADF1080C3D
:100A08006DE904CE00F006F8DDF804E0DDE9022324
:100A180004B070472DE9F0478C460D460446089E01
:100A2800002B51D18A4217466DD9B2FA82FEBEF127
:100A3800000F0BD0CEF1200C01FA0EF520FA0CFCB9
:100A480002FA0EF74CEA050C00FA0EF44FEA174AC0
:100A5800250CBCFBFAF81FFA87F90AFB18CC45EA03
:100A68000C4508FB09F3AB420AD9ED1908F1FF322E
:100A780080F02381AB4240F22081A8F102083D4476
:100A8800ED1AA4B2B5FBFAF00AFB105544EA054486
:100A980000FB09F9A14509D9E41900F1FF3380F0F9
:100AA8000A81A14540F2078102383C44A4EB0904BD
:100AB80040EA08400021002E61D024FA0EF40023F9
:100AC80034607360BDE8F0878B4207D9002E54D09C
:100AD800002186E821000846BDE8F087B3FA83F1D3
:100AE800002940F08E80AB4202D3824200F2FA80A5
:100AF800841A65EB03050120AC46002E3FD086E83A
:100B08001010BDE8F08712B90127B7FBF2F7B7FA62
:100B180087FEBEF1000F34D1EB1B3A0C1FFA87FC9D
:100B28000121B3FBF2F8250C02FB183345EA034513
:100B38000CFB08F3AB4207D9ED1908F1FF3002D2DC
:100B4800AB4200F2D1808046ED1AA3B2B5FBF2F0B9
:100B580002FB105543EA05440CFB00FCA44507D9E9
:100B6800E41900F1FF3302D2A44500F2B880184618
:100B7800A4EB0C0440EA08409DE731463046BDE846
:100B8800F087CEF1200405FA0EF307FA0EF720FAE3
:100B980004F83A0C25FA04F448EA0308B4FBF2F125
:100BA8004FEA184502FB11441FFA87FC45EA044541
:100BB80001FB0CF3AB4200FA0EF409D9ED1901F16F
:100BC800FF3080F08A80AB4240F2878002393D4492
:100BD800EB1A1FFA88F5B3FBF2F002FB103345EA73
:100BE800034500FB0CF3AB4207D9ED1900F1FF38C0
:100BF8006FD2AB426DD902383D44EB1A40EA01414D
:100C08008FE7C1F1200722FA07F88B4005FA01F4B3
:100C180048EA030320FA07FE4FEA134CFD404EEA68
:100C2800040EB5FBFCF94FEA1E440CFB19551FFADC
:100C380083F844EA054509FB08F4AC4202FA01F2DC
:100C480000FA01FA08D9ED1809F1FF3043D2AC4295
:100C580041D9A9F102091D442D1B1FFA8EFEB5FBCF
:100C6800FCF00CFB10554EEA054400FB08F8A045C3
:100C780007D9E41800F1FF3529D2A04527D9023851
:100C88001C4440EA0940A4EB0804A0FB02894C4537
:100C9800C6464D4615D312D056B1BAEB0E0364EBD7
:100CA800050404FA07F7CB401F43CC403760746053
:100CB8000021BDE8F0871846F8E69046E0E6C24510
:100CC800EAD2B8EB020E69EB03050138E4E72846DF
:100CD800D7E7404691E78146BEE7014678E7023804
:100CE8003C4445E7084608E7A8F102083D442BE7DD
:100CF800704700BF80B582B000AF0346FB80C820B4
:100D080000F032FC00F07AFA00BF0837BD4680BD1B
:100D180080B483B000AF0346FB8000BF0C37BD46EC
:100D28005DF8047B704780B584B000AF0346FB8054
:100D380000237B730023FB730023BB7300F05EFA70
:100D48000023FB7310E0FB88DBB2A821184600F0F3
:100D5800EDFB03467B737B7BDBB2512B01D1012377
:100D6800BB73FB7B0133FB73FB7B022B02D8BB7B82
:100D7800002BE8D07B7BDBB29BB218461037BD4610
:100D880080BD80B582B000AF0346FB80FB88184663
:100D980000F044FAFB88184600F032F900BF083723
:100DA800BD4680BD80B584B000AF0346FB800023FC
:100DB800FB73FB88DBB20221184600F0B7FB034641
:100DC800FB73FB7BDBB203F00F03DBB2FB73FB7B34
:100DD800DBB2052B01D90023FB73FB7BDAB2054B91
:100DE8005A70044B00229A70FB7BDBB2184610370E
:100DF800BD4680BDA4C9022080B586B000AF0346B9
:100E0800B9607A60FB810023FB740023FB75002323
:100E1800BB7500237B7500233B756D4B9A786C4B33
:100E28005B789A4280F0CF80694B9B78092B71D808
:100E380001A252F823F000BF690E00087B0E0008DB
:100E48008D0E00089F0E0008B10E0008C30E0008A2
:100E5800D50E0008E70E0008F90E00080B0F000871
:100E68000423FB750323BB7506237B7505233B759C
:100E780051E00A23FB750923BB750C237B750B23F3
:100E88003B7548E01023FB750F23BB7512237B7558
:100E980011233B753FE01623FB751523BB751823FB
:100EA8007B7517233B7536E01C23FB751B23BB752D
:100EB8001E237B751D233B752DE02223FB75212303
:100EC800BB7524237B7523233B7524E02823FB75FE
:100ED8002723BB752A237B7529233B751BE02E230B
:100EE800FB752D23BB7530237B752F233B7512E0D3
:100EF8003423FB753323BB7536237B7535233B754C
:100F080009E03A23FB753923BB753C237B753B23EA
:100F18003B7500E000BFFB89DBB2FA7D114618463D
:100F280000F004FB0346FB74FB7CDBB29AB2294B4E
:100F38001A80FB89DBB2BA7D1146184600F0F6FA32
:100F48000346FB74FB7CDBB21B0203F470631AB22A
:100F5800204B1B881BB213431BB29AB21D4B1A803D
:100F68001C4B1A88BB681A80FB89DBB27A7D114654
:100F7800184600F0DBFA0346FB74FB7CDBB29AB23E
:100F8800144B1A80FB89DBB23A7D1146184600F0F3
:100F9800CDFA0346FB74FB7CDBB21B0203F47063DF
:100FA8001AB20C4B1B881BB213431BB29AB2094BE3
:100FB8001A80084B1A887B681A80054B9B78013386
:100FC800DAB2034B9A7000BF1837BD4680BD00BF28
:100FD800A4C90220A8C9022080B584B000AF034686
:100FE800FB800023FB730123FB73FB88DBB2FA7BD6
:100FF800A421184600F080FA00BF1037BD4680BD16
:1010080080B584B000AF0346FB800023FB73002348
:10101800FB73FB88DBB2FA7BA421184600F06CFA5C
:1010280000BF1037BD4680BD80B483B000AF034613
:10103800FB80002318460C37BD465DF8047B7047DB
:1010480080B483B000AF0346FB8000BF0C37BD46B9
:101058005DF8047B704780B584B000AF0346396003
:10106800FB800023FB73FB88DBB20121184600F0EC
:101078005DFA0346FB73FB7BDBB21A463B681A60DA
:1010880000BF1037BD4680BD80B586B000AFB960DF
:101098007A603B600346FB8100233B750023FB75A8
:1010A8000023BB7500237B754D4B5B781A46BB68E4
:1010B8009A4240F29080BB68092B5DD801A252F891
:1010C80023F000BFF51000080311000811110008F3
:1010D8001F1100082D1100083B11000849110008D4
:1010E8005711000865110008731100080323FB75E8
:1010F8000723BB7508237B753FE00923FB750D2388
:10110800BB750E237B7538E00F23FB751323BB7566
:1011180014237B7531E01523FB751923BB751A233E
:101128007B752AE01B23FB751F23BB7520237B756A
:1011380023E02123FB752523BB7526237B751CE043
:101148002723FB752B23BB752C237B7515E02D23DB
:10115800FB753123BB7532237B750EE03323FB759A
:101168003723BB7538237B7507E03923FB753D238F
:10117800BB753E237B7500E000BFFB89DBB2FA7DBF
:101188001146184600F0D2F903463B753B7DDBB2A9
:101198009B1103F003023B6A1A60FB89DBB2BA7D3C
:1011A8001146184600F0C2F903463B753B7DDBB299
:1011B8001A467B681A60FB89DBB27A7D11461846AD
:1011C80000F0B4F903463B753B7DDBB21B1103F01D
:1011D80004023B681A6000BF1837BD4680BD00BFD7
:1011E800A4C9022080B400AF034B1B781846BD4643
:1011F8005DF8047B704700BFA4C9022080B500AF2A
:10120800FFF7F0FF0346002B04D100F06BF9024B07
:1012180001221A7000BF80BDA4C9022080B485B025
:1012280000AF0346FB800023FB60FB6818461437B9
:10123800BD465DF8047B704780B58CB000AF786020
:101248007B68514A93424DD1504A504B1B6B43F037
:10125800800313634D4B1B6B03F08003BB61BB69B9
:101268008023FB6112233B6200237B620223BB6263
:101278000423FB6207F11C031946454802F050FE9F
:101288004FF48073FB6107F11C031946404802F0D4
:1012980047FE3E4A3D4B1B6C43F4000313643B4B33
:1012A8001B6C03F400037B617B69384A374B1B6A6C
:1012B80043F400031362354A344B1B6A23F40003DA
:1012C800136200220F21482001F087FF482001F017
:1012D800A0FF00220F21492001F07FFF492001F0E3
:1012E80098FF4DE0294A294B1B6B43F00203136317
:1012F800264B1B6B03F002033B613B694FF4807381
:10130800FB6112233B6200237B620223BB6204233E
:10131800FB6207F11C0319461E4802F001FE4FF458
:101328000073FB6107F11C0319461A4802F0F8FD27
:10133800164A164B1B6C43F400131364134B1B6CB7
:1013480003F40013FB60FB68104A104B1B6A43F45C
:10135800001313620D4A0D4B1B6A23F4001313622A
:1013680000220F211F2001F038FF1F2001F051FF3C
:1013780000220F21202001F030FF202001F049FF3A
:1013880000BF3037BD4680BDACC9022000380240DE
:10139800001C02400004024080B582B000AF7860B3
:1013A800786803F0B7FA0346002B25D17B68144A06
:1013B800934203D17B68134A1A6002E07B68124AA1
:1013C8001A607B68114A5A607B6800229A607B68C1
:1013D8000122DA607B6800221A617B6800225A6168
:1013E8007B680022DA617B6800221A627868FFF75E
:1013F80023FF786802F070FF00BF0837BD4680BD44
:10140800ACC90220005C00400054004032279140E3
:1014180080B58AB004AFF860084611461A460346FC
:10142800FB720B463B811346FB800023FB75FB7A5E
:1014380099B2F8883A894FF47A730293BB8C019376
:101448003B6A00930346F86803F03EF90346FB75D0
:10145800FB7D002B04D0FB7A1946F86800F032F8BF
:10146800FB7D18461837BD4680BD80B58AB004AFED
:10147800F860084611461A460346FB720B463B8144
:101488001346FB800023FB75FB7A99B2F8883A89EA
:101498004FF47A730293BB8C01933B6A0093034623
:1014A800F86802F0EBFF0346FB75FB7D002B04D0C8
:1014B800FB7A1946F86800F005F8FB7D18461837DE
:1014C800BD4680BD80B582B000AF78600B46FB702A
:1014D800786802F08FFF7868FFF75EFF00BF083773
:1014E800BD4680BD80B500AF0248FFF755FF00BF7D
:1014F80080BD00BFACC9022080B584B002AF0346EE
:10150800FB710B46BB7113467B71BB799AB2F979B3
:10151800012301937B1D009301230348FFF7A5FFD7
:1015280000BF0837BD4680BDACC9022080B586B073
:1015380002AF03460A46FB711346BB710023FB73D7
:10154800BB799AB2F9790123019307F10F0300934C
:1015580001230448FFF75CFFFB7B18461037BD46A4
:1015680080BD00BFACC9022080B582B000AF7860F2
:10157800786801F03BFD00BF0837BD4680BD00001C
:1015880080B500AF314B28225A61304B09229A614D
:101598002E4B3522DA612D4B0B221A622B4B40F26F
:1015A8001B129A62294B40F215225A62274B40F2CD
:1015B8001D121A63254B40F23522DA6200212348B6
:1015C80000F064FF214B4FF4F0721A661F4B4FF482
:1015D80088725A661D4B002283F834201B4B002268
:1015E80083F83520194B002283F83620174B002248
:1015F8005A60164B00229A60144B0022DA60134B93
:1016080000221A61114B124A1A60104803F098FD23
:101618000346002B03D100210C4800F05DFE0B4867
:1016280003F0AAFB01224FF480510A4802F03AFE67
:1016380001220821084802F035FE01F08BF807481E
:1016480000F0D8F80023184680BD00BFA8CB0220C0
:1016580000680140002002400028024028000020C5
:1016680080B400AF064B1B68064A342101FB03F324
:10167800134460331B681846BD465DF8047B704709
:1016880038CA0220A8CB022080B400AF064B1B68E2
:10169800064A342101FB03F3134464331B681846DC
:1016A800BD465DF8047B704738CA0220A8CB0220EB
:1016B80080B590B000AF03463960FB800023FB6023
:1016C800FFF7CEFF03463B6100237B61FFF7DCFF9A
:1016D8000346BB610023FB613B683B63FF233B621E
:1016E80000237B62002387F83C30002387F83D30D5
:1016F800002387F83E304FF4C063BB620723FB62C8
:10170800FFF7AEFF03467B63FFF7BEFF0346BB63ED
:10171800FA8807F10C031946124803F0D3FCFA883B
:10172800114913465B0013449B000B4404334FF0EC
:10173800FF321A60FA880C4913465B0013449B0079
:101748000B440833094A1A60FA88074913465B00B4
:1017580013449B000B444FF07F421A6000BF403790
:10176800BD4680BDA8CB02203CCA0220280000202C
:1017780080B483B000AF7860044A7B68136000BF10
:101788000C37BD465DF8047B704700BF38CA02209D
:1017980080B483B000AF7860074B1A6807491346D6
:1017A8005B0013449B000B447A681A6000BF0C3737
:1017B800BD465DF8047B704738CA02203CCA022047
:1017C80080B483B000AF7860084B1A6808491346A4
:1017D8005B0013449B000B4404337A681A6000BF13
:1017E8000C37BD465DF8047B704700BF38CA02203D
:1017F8003CCA022080B483B000AF7860084B1A68F6
:10180800084913465B0013449B000B4408337A686D
:101818001A6000BF0C37BD465DF8047B704700BFF7
:1018280038CA02203CCA022080B400AF074B1A68AD
:10183800074913465B0013449B000B4408331B689D
:101848001846BD465DF8047B704700BF38CA0220C1
:101858003CCA0220F0B585B002AF78600F4B1C6817
:101868000E4B1B680E4A342101FB03F313445C330F
:101878001B681D46FFF7F4FE0646FFF705FF024604
:101888007B6801930023009313463246294620467D
:1018980000F0D0FE00BF0C37BD46F0BD38CA0220AC
:1018A800A8CB022090B583B000AF0346FB800B465F
:1018B800BB801346FB701B4B1A681B4913465B0021
:1018C80013449B000B4408331B681968FB78A3F189
:1018D8002000144B1A68144C13465B0013449B00F9
:1018E800234408331B68DB8803FB00F00D4B1A68A0
:1018F8000D4C13465B0013449B00234408331B68BC
:101908009B880733002B00DA0733DB1003FB00F357
:10191800CA18B988FB88184600F0D4FD00BF0C37F8
:10192800BD4690BD38CA02203CCA0220B0B588B076
:1019380000AFBA601A460346FB810B46BB811346CB
:10194800FB710123FB830023BB830023BB610023BE
:101958003B61BB687B6102E0BB690133BB617B69AA
:101968005A1C7A611B78002BF6D1FFF779FE4F4B92
:101978001A684F4913465B0013449B000B44083315
:101988001B689B88B0FBF3F33B61FB79022B1CD0EF
:10199800032B17D0012B2ED13A69BB69D11A434BBF
:1019A8001A68434813465B0013449B0003440833FA
:1019B8001B689B8803FB01F35B089AB2FB891344FD
:1019C800FB831BE0FB89FB8318E03A69BB69D31AE8
:1019D80099B2364B1A68364813465B0013449B008D
:1019E800034408331B689B8811FB03F39AB2FB89F5
:1019F800D31AFB8302E0FB89FB8300BFFB8B002B20
:101A080003D0B7F91E30002B1DDA0123FB831AE03F
:101A1800BB681A78B989FB8B1846FFF743FF234B3D
:101A28001A68234913465B0013449B000B44083390
:101A38001B689A88FB8B1344FB83BB680133BB602C
:101A4800BB8B0133BB83BB681B78002B14BF0123FE
:101A58000023DCB2FFF704FE0546B98B134B1A6866
:101A6800134813465B0013449B00034408331B6868
:101A78009B8803FB01F3EB1A99B20C4B1A680C48CC
:101A880013465B0013449B00034408331B689B8880
:101A980099422CBF01230023DBB22340DBB2002B89
:101AA800B6D100BF2037BD46B0BD00BF38CA02203E
:101AB8003CCA0220B0B586B002AF0346FB800B4695
:101AC800BB8013467B800023FB60264B1B68264A9D
:101AD800342101FB03F3134448331B68022B14D150
:101AE800204B1B68204A342101FB03F313445C3369
:101AF8001C68FFF7B5FD0246BB8803FB02F2FB88B2
:101B080013445B002344FB6013E0164B1B68164A22
:101B1800342101FB03F313445C331C68FFF7A0FD79
:101B28000246BB8803FB02F2FB8813449B00234454
:101B3800FB600C4B1868FC687D880A4B1A680B49D7
:101B480013465B0013449B000B441B68019300235E
:101B5800009301232A46214600F06CFD00BF103790
:101B6800BD46B0BD38CA0220A8CB02203CCA02201C
:101B7800F0B587B002AF0346FB800B46BB80134627
:101B88007B800023FB60284B1B68284A342101FB1B
:101B980003F3134448331B68022B14D1224B1B68F0
:101BA800224A342101FB03F313445C331C68FFF71A
:101BB80057FD0246BB8803FB02F2FB8813445B0017
:101BC8002344FB6013E0184B1B68184A342101FBBF
:101BD80003F313445C331C68FFF742FD0246BB88DD
:101BE80003FB02F2FB8813449B002344FB600E4B6B
:101BF8001C68FD687E88FFF733FD0346591E0A4BB3
:101C08001A680B4813465B0013449B0003441B6887
:101C180001930091334601222946204600F00AFD2F
:101C280000BF1437BD46F0BD38CA0220A8CB022039
:101C38003CCA022090B583B000AF0446084611465E
:101C48001A462346FB800346BB800B467B8013461F
:101C58003B807A88B988FB881846FFF72BFFBA883B
:101C68003B88134499B27A88FB881846FFF722FF0D
:101C78003A88B988FB881846FFF77AFFFA887B8884
:101C880013449BB23A88B9881846FFF771FF00BF22
:101C98000C37BD4690BD000090B587B000AF034635
:101CA800FB800B46BB8013467B807B885B00C3F1BF
:101CB80003037B6100233B617B88FB60CFE03B69CA
:101CC8009AB2FB88134498B2FB689BB2BA88D31ABD
:101CD8009CB2674B1A68674913465B0013449B0024
:101CE8000B441B681A46214600F0C6F83B699BB2B4
:101CF800FA88D31A98B2FB689BB2BA88D31A9CB2F6
:101D08005B4B1A685B4913465B0013449B000B440A
:101D18001B681A46214600F0AFF8FB689AB2FB88A8
:101D2800134498B23B699BB2BA88D31A9CB2504B01
:101D38001A68504913465B0013449B000B441B6808
:101D48001A46214600F098F8FB689BB2FA88D31A25
:101D580098B23B699BB2BA88D31A9CB2444B1A68B2
:101D6800444913465B0013449B000B441B681A4606
:101D7800214600F081F83B699AB2FB88134498B277
:101D8800FB689AB2BB8813449CB2394B1A6839492C
:101D980013465B0013449B000B441B681A462146FC
:101DA80000F06AF83B699BB2FA88D31A98B2FB68CC
:101DB8009AB2BB8813449CB22D4B1A682D4913461E
:101DC8005B0013449B000B441B681A46214600F035
:101DD80053F8FB689AB2FB88134498B23B699AB2ED
:101DE800BB8813449CB2224B1A68224913465B00F5
:101DF80013449B000B441B681A46214600F03CF82C
:101E0800FB689BB2FA88D31A98B23B699AB2BB882E
:101E180013449CB2164B1A68164913465B001344C8
:101E28009B000B441B681A46214600F025F87B6985
:101E3800002B06DA3B699A007B69134406337B6101
:101E48000AE03A69FB68D31A9A007B6913440A339B
:101E58007B61FB68013BFB603B6901333B613A698D
:101E6800FB689A427FF62BAF00BF1C37BD4690BD7A
:101E780038CA02203CCA0220B0B582B000AF03467F
:101E88003A60FB800B46BB801D4B1B681D4A342102
:101E980001FB03F3134448331B68022B16D1184B7C
:101EA8001B68184A342101FB03F313445C331C6894
:101EB800BD88FFF7D5FB034603FB05F2FB881344F7
:101EC8005B0023443A6892B21A8015E00C4B1B68F9
:101ED8000C4A342101FB03F313445C331C68BD88AE
:101EE800FFF7BEFB034603FB05F2FB8813449B0088
:101EF80023441A463B68136000BF0837BD46B0BD8F
:101F080038CA0220A8CB022090B58BB000AFF86089
:101F1800B9607A6000237B620023BB6100237B6188
:101F280000233B610023FB617B680A331B781A4658
:101F38007B680B331B781B021A447B680C331B78B5
:101F48001B041A447B680D331B781B0613447B6201
:101F58007B6812331B781A467B6813331B781B0285
:101F68001A447B6814331B781B041A447B681533A6
:101F78001B781B061344BB617B6816331B781A4613
:101F88007B6817331B781B021A447B6818331B784D
:101F98001B041A447B6819331B781B0613447B61A6
:101FA8007B681C331B781A467B681D331B781B0221
:101FB80013443B612A4B1B682A4A342101FB03F373
:101FC80013445C331C68FFF74BFB0246BB6803FBFA
:101FD80002F2FB6813449B0023443B623B69203BAD
:101FE800072B02D80023FB6108E03B69103B072B55
:101FF80002D80223FB6101E00123FB617B69013BFD
:10200800BA6902FB03F33A69D20802FB03F27B6A5E
:1020180013447A6813447B6000237B6218E0396AB2
:10202800FB69BA69786800F051FBFFF719FB0346B2
:102038009B003A6A13443B623B69DB08BA6902FBBE
:1020480003F35B427A6813447B607B6A01337B62EB
:102058007A6A7B699A42E2D300BF2C37BD4690BDAD
:1020680038CA0220A8CB02202DE9F04186B002AF81
:102078000446084611461A462346FB800346BB80A1
:102088000B467B8013463B800023FB60304B1A686D
:10209800304913465B0013449B000B441B681846E9
:1020A800FFF776FB2A4B1B682B4A342101FB03F30D
:1020B800134448331B68022B14D1254B1B68264A4E
:1020C800342101FB03F313445C331C68FFF7C8FA9F
:1020D8000246BB8803FB02F2FB8813445B002344DF
:1020E800FB6013E01A4B1B681B4A342101FB03F306
:1020F80013445C331C68FFF7B3FA0246BB8803FB42
:1021080002F2FB8813449B002344FB60104B1C68BD
:10211800FD687E88B7F80080FFF7A2FA02467B8840
:10212800D11A0B4B1A680B4813465B0013449B00EB
:1021380003441B68019300914346324629462046D2
:1021480000F078FA00BF1037BD46BDE8F08100BF47
:1021580038CA02203CCA0220A8CB022080B586B02B
:1021680000AF0346FB800B46BB8013467B807B8811
:102178005B00C3F103037B6100233B617B88FB6049
:10218800444B1A68444913465B0013449B000B44B4
:102198001B681846FFF7FCFA61E0FB68002B21D0AA
:1021A800FB689BB2FA88D31A98B23B699AB2BB888B
:1021B800134499B2FB689BB25B009BB21A46FFF7C7
:1021C80079FCFB689BB2FA88D31A98B23B699BB238
:1021D800BA88D31A99B2FB689BB25B009BB21A46C5
:1021E800FFF768FC3B69002B21D03B699BB2FA885A
:1021F800D31A98B2FB689BB2BA88D31A99B23B69D2
:102208009BB25B009BB21A46FFF754FC3B699BB23A
:10221800FA88D31A98B2FB689AB2BB88134499B269
:102228003B699BB25B009BB21A46FFF743FC7B6994
:10223800002B06DA3B699A007B69134406337B61FD
:102248000AE03A69FB68D31A9A007B6913440A3397
:102258007B61FB68013BFB603B6901333B613A6989
:10226800FB689A4299D90B4B1A680B4913465B00D5
:1022780013449B000B441B681846FFF789FA7A88B9
:10228800B988FB881846FFF707FD00BF1837BD4619
:1022980080BD00BF38CA02203CCA022080B500AF0A
:1022A8000A4B1B68094A1268926942F001029A6156
:1022B80001224FF48051064801F0F4FF0122082161
:1022C800044801F0EFFF00BF80BD00BFA8CB02208B
:1022D800002002400028024080B590B000AF78602E
:1022E8003960644A634B5B6C43F080635364614BB1
:1022F8005B6C03F08063BB62BB6A5E4A5D4B1B6B21
:1023080043F4000313635B4B1B6B03F400037B6212
:102318007B6A584A574B1B6B43F010031363554BAA
:102328001B6B03F010033B623B6A524A514B1B6B19
:1023380043F0400313634F4B1B6B03F04003FB61F7
:10234800FB694C4A4B4B1B6B43F480731363494B3B
:102358001B6B03F48073BB61BB69464A454B1B6B1F
:1023680043F400731363434B1B6B03F400737B61EB
:102378007B69404A3F4B1B6B43F4806313633D4BBF
:102388001B6B03F480633B613B693A4A394B1B6B17
:1023980043F480731363374B1B6B03F48073FB6048
:1023A800FB68344A334B1B6B43F480631363314B34
:1023B8001B6B03F48063BB60BB681023FB620223C2
:1023C8003B6300237B630223BB630E23FB6307F19C
:1023D8002C031946284801F0A3FD4FF48053FB62F3
:1023E80002233B630923FB6307F12C0319462348A7
:1023F80001F096FD4FF46643FB6202233B630E2314
:10240800FB6307F12C0319461D4801F089FD4EF6C0
:10241800FF73FB6202233B630E23FB6307F12C036C
:102428001946184801F07CFDF723FB6202233B6341
:102438000E23FB6307F12C031946134801F070FDC6
:102448004FF48053FB6201233B6307F12C031946C9
:102458000B4801F065FD0823FB6201233B6307F18C
:102468002C031946084801F05BFD00BF4037BD4604
:1024780080BD00BF00380240001002400018024032
:1024880000200240002402400028024080B582B0AB
:1024980000AF786039600A4B08221A60084BC022E6
:1024A8005A61074B0522DA61054B4FF48032DA6234
:1024B800034803F0BFFC00BF0837BD4680BD00BF1E
:1024C80054CA022080B588B000AF03463A60FB804A
:1024D8000B46BB800023FB610023BB61534B1A688A
:1024E800534913465B0013449B000B4408331B6895
:1024F800DB887B824D4B1A684D4913465B001344B9
:102508009B000B4408331B689B883B823B8A07333C
:10251800002B00DA0733DB10DBB2DB00DAB23B8AD0
:10252800DBB2D31AFB730023FB6176E03B8A0733E7
:10253800002B00DA0733DB101A46FB6903FB02F3B2
:102548003A681344BB603B8A0733002B00DA073331
:10255800DB10012B02D0022B04D00CE0BB681B78E7
:102568007B6116E0BB681B781B02BA6801321278DF
:1025780013437B610DE0BB681B781A04BB68013309
:102588001B781B021343BA680232127813437B612B
:1025980000BF0023BB6136E03A8ABB69D21AFB7BD5
:1025A8001344013B012202FA03F31A467B691340E4
:1025B800002B12D0BB699AB2FB88134498B21B4B0C
:1025C8001A681B4913465B0013449B000B441A68A6
:1025D800BB881946FFF750FC12E0BB699AB2FB882A
:1025E800134498B2114B1A68114913465B001344FF
:1025F8009B000B4404331A68BB881946FFF73CFC60
:10260800BB690133BB613A8ABB699A42C4D8BB88AB
:102618000133BB80FB690133FB617A8AFB699A420B
:1026280084D800BF2037BD4680BD00BF38CA02200D
:102638003CCA022080B586B002AFF860B9607A6003
:102648003B601E4B4FF440325A601D4B1B681D4ABD
:10265800342101FB03F3134448331B68022B03D1D5
:10266800164B02229A6002E0144B00229A60134A29
:10267800BB69D360114B144A1A60104801F0A8F8DE
:102688000346002B15D1F9680C4801F00FFB0346EF
:10269800002B0ED1BA683B6800937B68F96907483C
:1026A80001F0E0F80346002B03D10A21034801F0AA
:1026B80004F900BF1037BD4680BD00BFF8C902202D
:1026C80038CA0220A8CB022000B0024080B586B0EC
:1026D80002AFF860B9607A603B601C4B4FF48032FF
:1026E8005A601A4B00229A60184B0022DA60174B86
:1026F80000221A63154BFF225A63144A3B68D362BF
:10270800124B00229A62114B114A1A600F4801F0CD
:102718005FF80346002B15D101210C4801F0C6FAD9
:102728000346002B0ED1F968BA68012300937B6831
:10273800064801F097F80346002B03D10A21034805
:1027480001F0BBF800BF1037BD4680BDF8C90220B4
:1027580000B0024080B500AF294B2A4A1A602A4BC4
:1027680002221A60284B07225A60274B04229A60DB
:10277800254B0722DA60244B02221A61224B0222DF
:102788005A61214B02229A611D4B00225A601C4B50
:1027980000229A601A4B0422DA60194B10221A613F
:1027A800174B40225A61164B4FF480729A61144BB2
:1027B8000022DA61124B4FF400621A62104B4FF498
:1027C80080525A620E4B00229A6200210C4800F097
:1027D8007FF80D490A4803F01BFF0346002B03D07E
:1027E8000A4B01221A7002E0084B00221A7040F2CC
:1027F800036000F00DF8054B1B78184680BD00BF3C
:1028080050CC0220400100A0D8CA02203800002085
:1028180080B584B000AF78600023FB602A4B0122AA
:102828001A60294B10225A60274B01229A60264BC6
:102838000022DA604FF6FF722349244803F01CFF98
:10284800012000F0D3FB204B02221A601E4B1022FD
:102858005A601D4B01229A601B4B0022DA604FF62A
:10286800FF721949194803F007FF174B03221A6032
:10287800154B10225A60144B08229A60124B002202
:10288800DA604FF6FF721049104803F0F5FE4FF476
:102898000873FB600C4B04221A600B4B10225A6021
:1028A800094B01229A60FB68074AD3604FF6FF7212
:1028B8000549064803F0E0FE7968044803F007FF7D
:1028C80000BF1037BD4680BDF4CA022050CC02209C
:1028D80080B590B000AF78603960704A6F4B9B6BE1
:1028E80043F0010393636D4B9B6B03F00103BB62E1
:1028F800BB6A6A4A694B1B6B43F480031363674BDB
:102908001B6B03F480037B627B6A644A634B1B6B1B
:1029180043F004031363614B1B6B03F004033B6236
:102928003B6A5E4A5D4B1B6B43F0080313635B4BCA
:102938001B6B03F00803FB61FB69584A574B1B6B81
:1029480043F010031363554B1B6B03F01003BB617B
:10295800BB69524A514B1B6B43F0200313634F4B27
:102968001B6B03F020037B617B694C4A4B4B1B6B51
:1029780043F040031363494B1B6B03F040033B6177
:102988003B69464A454B1B6B43F080031363434B3B
:102998001B6B03F08003FB60FB6802233B6301238E
:1029A8007B630223BB630C23FB630823FB6207F1F1
:1029B8002C0319463A4801F0B3FA4CF20373FB6250
:1029C80007F12C031946374801F0AAFA4FF683732A
:1029D800FB6207F12C031946334801F0A1FA4FF6C0
:1029E8003F03FB6207F12C031946304801F098FABF
:1029F80048F23313FB6207F12C0319462C4801F007
:102A08008FFA2823FB6207F12C031946294801F0A5
:102A180087FA294B00225A60274B80229A60264B5E
:102A28004FF40072DA60244B4FF480621A61224B33
:102A38004FF480525A61204B4FF480429A611E4BEA
:102A48000022DA611C4B4FF400321A621A4B002242
:102A58005A62194B03229A62174B0022DA62164B0C
:102A680000221A63144B154A1A607B68124A1A63CB
:102A7800114A7B689363104800F09CFD0E4800F0F3
:102A8800EBFC00220F21382000F0A7FB382000F0D3
:102A9800C0FB00BF4037BD4680BD00BF00380240C4
:102AA80000080240000C02400010024000140240DE
:102AB80000180240001C024004CB022010640240AF
:102AC80080B584B000AF03460A46FB801346BB803E
:102AD8000023FB73144AFB881380144ABB881380B5
:102AE800134B1B6870209847114B5B687020984700
:102AF8000346512B11D10F4B0D4A1A600E4B702211
:102B08001A700E4B08221A700A4B1B68DB680A4AB7
:102B1800127892B21046984701E00323FB73FB7BBF
:102B280018461037BD4680BD68CB02206ACB02200C
:102B38000000002064CB02206DCB02206CCB022069
:102B480090B597B002AF7860002387F84F30002324
:102B58003B610023FB600023BB60974B1B681B692C
:102B6800964A127892B21046984703461A467B68EE
:102B78001A707B681B78002B00F0A8810023BB64C7
:102B880097E18D4B1B685B698C4A127890B207F10C
:102B98002001BA6C52008C1807F11401BA6C52006B
:102BA8000A4421469847864B1B78012B1BD1BB6CE6
:102BB8005B0007F15002134433F8302CBB6C5B0008
:102BC80007F150010B4423F8182CBB6C5B0007F18C
:102BD8005002134433F83C2CBB6C5B0007F15001E6
:102BE8000B4423F8242C764B1B7803F00203002BAC
:102BF80010D0BB6C5B0007F15002134433F8303C33
:102C0800C3F580539AB2BB6C5B0007F150010B44CB
:102C180023F8182C6A4B1B7803F00403002B10D000
:102C2800BB6C5B0007F15002134433F83C3CC3F51E
:102C380080539AB2BB6C5B0007F150010B4423F838
:102C4800242C5F4B1B7803F00803002B1BD0BB6CB4
:102C58005B0007F15002134433F8302CBB6C5B0067
:102C680007F150010B4423F8242CBB6C5B0007F1DF
:102C78005002134433F83C2CBB6C5B0007F1500145
:102C88000B4423F8182CBB6C5B0007F1500213446B
:102C980033F8183C19464B4ABB6C52F8233099421A
:102CA8000ED9BB6C5B0007F15002134433F8182CA3
:102CB8004449BB6C51F823309BB2D31A9BB20DE048
:102CC800404ABB6C52F823309AB2BB6C5B0007F1E8
:102CD80050010B4433F8183CD31A9BB2A7F846307E
:102CE800BB6C5B0007F15002134433F8243C1946CF
:102CF800354ABB6C52F8233099420ED9BB6C5B0045
:102D080007F15002134433F8242C2F49BB6C51F8B7
:102D180023309BB2D31A9BB20DE02B4ABB6C52F8FE
:102D280023309AB2BB6C5B0007F150010B4433F8B7
:102D3800243CD31A9BB2A7F84430B7F84620B7F81A
:102D480044301344052B17DDBB6C5B0007F15002C0
:102D5800134433F8183C19461A4ABB6C42F823103E
:102D6800BB6C5B0007F15002134433F8243C19464E
:102D7800154ABB6C42F82310104B1B78702B25D1D9
:102D8800BB6C5B0007F15002134433F8181C7A68D7
:102D9800BB6C5B0013440A465A80BB6C5B0007F1AE
:102DA8005002134433F8241C7A68BB6C04335B006C
:102DB80013440A469A802CE064CB02206DCB022093
:102DC8006CCB022070CB022084CB0220424B1B88A4
:102DD8001946424ABB6C52F8233003FB01F31B0B24
:102DE80099B27A68BB6C5B0013440A465A803C4B24
:102DF8001B8819463B4ABB6C52F8233003FB01F38E
:102E08001B0B99B27A68BB6C04335B0013440A4607
:102E18009A80354B1B7898B207F10C0107F1100224
:102E280007F1080300930B46B96CFEF72DF93B69CF
:102E3800D9B27A68BB6C134416330A461A70FB6819
:102E4800D9B27A68BB6C134420330A461A70BB683F
:102E5800032B27D801A252F823F000BF752E0008D3
:102E6800832E0008912E00089F2E00087A68BB6CFC
:102E780013441B3301221A7018E07A68BB6C1344A0
:102E88001B3302221A7011E07A68BB6C13441B339F
:102E980003221A700AE07A68BB6C13441B330022C1
:102EA8001A7003E0012387F84F3000BFBB6C013371
:102EB800BB647B681B781A46BB6C9A423FF661AECE
:102EC800786800F013F8034687F84F3097F84F30CA
:102ED80018465437BD4690BD68CB022070CB0220FF
:102EE8006ACB022084CB02206DCB022080B584B04F
:102EF80000AF78600023BB600023FB731F4B1B7877
:102F08009BB207F1080211461846FEF7A4F8BB6801
:102F1800182B1BD0182B06D8102B0FD0142B11D020
:102F2800002B07D022E0402B18D0492B1AD01C2B9D
:102F380010D01BE07B6800229A621AE07B680122AD
:102F48009A6216E07B6802229A6212E07B6803228A
:102F58009A620EE07B6804229A620AE07B68052286
:102F68009A6206E07B6806229A6202E00123FB73FC
:102F780000BFFB7B18461037BD4680BD6DCB0220D5
:102F880080B500AF084A084B1B6843F40073136010
:102F9800032000F017F9002006F058FF06F0F4FCB3
:102FA8000023184680BD00BF003C024080B400AF3B
:102FB800064B1B781A46064B1B681344044A1360D9
:102FC80000BFBD465DF8047B704700BF3900002094
:102FD80084CC022080B400AF034B1B681846BD4662
:102FE8005DF8047B704700BF84CC022080B584B0B4
:102FF80000AF7860FFF7EEFFB8607B68FB60FB68A6
:10300800B3F1FF3F05D0094B1B781A46FB68134400
:10301800FB6000BFFFF7DEFF0246BB68D21AFB6801
:103028009A42F7D300BF1037BD4680BD3900002053
:1030380080B485B000AF78607B6803F00703FB605D
:103048000B4BDB68BB60BA684FF6FF031340BB60ED
:10305800FB681A02BB681A43064B1343BB60044A59
:10306800BB68D36000BF1437BD465DF8047B70476A
:1030780000ED00E00000FA0580B400AF044BDB6807
:103088001B0A03F007031846BD465DF8047B70472A
:1030980000ED00E080B483B000AF0346FB7109493E
:1030A80097F907305B09FA7902F01F02012000FA4C
:1030B80002F241F8232000BF0C37BD465DF8047BBF
:1030C800704700BF00E100E080B483B000AF034662
:1030D8003960FB7197F90730002B0BDA0D49FB7942
:1030E80003F00F03043B3A68D2B21201D2B20B4488
:1030F8001A7609E0084997F907303A68D2B21201FE
:10310800D2B20B4483F8002300BF0C37BD465DF8EC
:10311800047B704700ED00E000E100E080B489B076
:1031280000AFF860B9607A60FB6803F00703FB61E1
:10313800FB69C3F10703042B28BF0423BB61FB69A8
:103148000433062B02D9FB69033B00E000237B61B3
:103158000122BB6902FA03F35A1EBB681A407B6955
:103168009A4001217B6901FA03F3591E7B680B40E1
:10317800134318462437BD465DF8047B70470000AA
:1031880080B582B000AF78607B68013BB3F1807F87
:1031980001D301230FE00A4A7B68013B53600F21EA
:1031A8004FF0FF30FFF790FF054B00229A60044B69
:1031B80007221A60002318460837BD4680BD00BFA5
:1031C80010E000E080B582B000AF78607868FFF763
:1031D8002FFF00BF0837BD4680BD80B586B000AF61
:1031E8000346B9607A60FB7300237B61FFF744FFF5
:1031F80078617A68B9687869FFF790FF024697F9AD
:103208000F3011461846FFF75FFF00BF1837BD465D
:1032180080BD80B582B000AF0346FB7197F90730D7
:103228001846FFF737FF00BF0837BD4680BD80B599
:1032380082B000AF78607868FFF7A2FF03461846AF
:103248000837BD4680BD000080B483B000AF786009
:103258007B68042B06D1094A084B1B6843F004031A
:10326800136005E0054A054B1B6823F0040313604F
:1032780000BF0C37BD465DF8047B704710E000E0E6
:1032880080B500AF00F002F800BF80BD80B400AF89
:1032980000BFBD465DF8047B7047000080B582B072
:1032A80000AF78607B68002B01D1012354E07B6874
:1032B8005B7FDBB2002B05D17B6800221A77786828
:1032C80006F0B0FB7B6802225A777B681B79002BDB
:1032D8000CD17B681B68224A5A617B681B687A6834
:1032E8001268926822F018029A600CE07B6899686C
:1032F8007B68DB681A46786800F034F80346002BD0
:1033080001D0012328E07B685B79002B05D17B681D
:103318001B684FF0FF321A6104E07B681B687A680B
:1033280012691A617B681B687A681268926822F0D1
:1033380060017A6852690A439A607B681B687A68F8
:103348001268926822F080017A6892690A439A604A
:103358007B6801225A77002318460837BD4680BD8E
:10336800B71DC10480B487B000AFF860B9607A6057
:103378001F237B6100BFBA687B6922FA03F303F05D
:103388000103002B04D17B695A1E7A61002BF2D10C
:103398007B68182B43D801A252F823F02734000881
:1033A8002734000827340008273400082734000889
:1033B8002734000827340008273400081D34000883
:1033C8002734000827340008273400082734000869
:1033D800273400082734000827340008133400086D
:1033E8002734000827340008273400082734000849
:1033F8002734000827340008273400080934000857
:103408007B69062B0DD901231FE07B69072B0AD99D
:1034180001231AE07B690F2B07D9012315E000BFB0
:1034280004E000BF02E000BF00E000BFFB681B68CB
:10343800BA685A61FB681B68FA681268926822F0D9
:1034480018017A680A439A60002318461C37BD465B
:103458005DF8047B704700BF80B586B000AF786028
:1034680000237B61FFF7B6FD38617B68002B01D133
:10347800012399E07B68002283F834207B680222CC
:1034880083F835207B681B687A681268126822F016
:1034980001021A600FE0FFF79DFD02463B69D31A4F
:1034A800052B08D97B6820225A657B68032283F89C
:1034B8003520032378E07B681B681B6803F0010351
:1034C800002BE8D17B681B681B687B617A69384BE5
:1034D80013407B617B685A687B689B681A437B68EA
:1034E800DB681A437B681B691A437B685B691A436C
:1034F8007B689B691A437B68DB691A437B681B6A94
:1035080013437A6913437B617B685B6A042B07D199
:103518007B68DA6A7B681B6B13437A6913437B61A8
:103528007B681B687A691A607B681B685B697B61CA
:103538007B6923F007037B617B685B6A7A691343C5
:103548007B617B685B6A042B17D17B689B6A7A690D
:1035580013437B617B68DB6A002B0ED0786800F030
:10356800BDF80346002B08D07B6840225A657B686B
:10357800012283F83520012316E07B681B687A69ED
:103588005A61786800F074F80346FB607B68DB6D6D
:103598003F229A40FB689A607B6800225A657B68E4
:1035A800012283F83520002318461837BD4680BD10
:1035B8003F8010F080B584B000AF78607B68002B46
:1035C80001D1012350E07B6893F83530DBB2022B40
:1035D80001D1022348E07B681B687A681268126888
:1035E80022F001021A607B681B6800221A607B685F
:1035F8001B6800225A607B681B6800229A607B68FF
:103608001B680022DA607B681B6800221A617B68ED
:103618001B6821225A61786800F02AF80346FB608B
:103628007B68DB6D3F229A40FB689A607B680022CA
:10363800DA637B6800221A647B6800225A647B681C
:1036480000229A647B680022DA647B6800221A658B
:103658007B6800225A657B68002283F835207B68E6
:10366800002283F83420002318461037BD4680BD59
:1036780080B485B000AF78607B681B68DBB2103B14
:10368800134AA2FB03231B09FB60124AFB6813447D
:103698001B781A467B68DA65FB68032B08D97B68B8
:1036A8001B681A460C4B13401A1D7B689A6506E086
:1036B8007B681B681A46084B13407A6893657B68D9
:1036C8009B6D18461437BD465DF8047B704700BFF4
:1036D800ABAAAAAA88C0000800FCFFFF80B485B086
:1036E80000AF78600023FB737B689B6ABB607B68D4
:1036F8009B69002B1FD1BB68032B55D801A252F838
:1037080023F000BF1D3700082F3700081D370008B9
:10371800B13700087B68DB6A03F08073002B45D063
:103728000123FB7342E07B68DB6AB3F1C07F3FD1C2
:103738000123FB733CE07B689B69B3F5005F21D1F3
:10374800BB68032B36D801A252F823F0653700086E
:103758006B370008653700087D3700080123FB73C5
:103768002FE07B68DB6A03F08073002B24D00123F1
:10377800FB7321E07B68DB6AB3F1C07F1ED10123B4
:10378800FB731BE0BB68022B02D9032B03D018E0A4
:103798000123FB7315E07B68DB6A03F08073002B61
:1037A8000ED00123FB730BE000BF0AE000BF08E066
:1037B80000BF06E000BF04E000BF02E000BF00E079
:1037C80000BFFB7B18461437BD465DF8047B704785
:1037D80080B582B000AF78607B68002B01D10123EF
:1037E80039E07B6893F83930DBB2002B06D17B686F
:1037F800002283F83820786806F034F97B680222C2
:1038080083F839207B681B687A681268126822F48A
:1038180040317A6852680A431A607B681B687A6884
:103828001268526B22F007017A6892680A435A6359
:103838007B681A687B681B68196C094B0B407968B0
:10384800C9680B4313647B680022DA637B68012232
:1038580083F83920002318460837BD4680BD00BFCD
:1038680000C0FFFF80B586B002AFF860B9607A602B
:103878003B60FB6893F83830012B01D1022318E034
:10388800FB68012283F83820FB68022283F839207C
:10389800BB6900933B687A68B968F86800F09AFADF
:1038A800FB681B68FA681268126842F001021A6025
:1038B800002318461037BD4680BD80B584B000AFE0
:1038C800786039600023FB600023BB607B681B685D
:1038D8001B6803F00103002B56D0FFF77BFBF86051
:1038E8004BE07B681B685B68BB60BB6803F0210327
:1038F800002B23D0BB6803F02003002B05D07B6886
:10390800DB6B43F002027B68DA63BB6803F00103F8
:10391800002B05D07B68DB6B43F001027B68DA6320
:103928007B681B6821229A607B68042283F839200F
:103938007B68002283F838200123A2E03B68B3F1BA
:10394800FF3F1AD03B68002B07D0FFF743FB024626
:10395800FB68D21A3B689A420FD97B68DB6B43F04D
:1039680020027B68DA637B68032283F839207B684E
:10397800002283F83820032383E07B681B685B6898
:1039880003F00203002BACD07B681B68DB6903F0F3
:103998002003002B06D17B681B685B6A03F02003B9
:1039A800002B61D0FFF716FBF86056E07B681B68B8
:1039B8005B68BB60BB6803F02903002B2ED0BB6893
:1039C80003F00803002B05D07B68DB6B43F004028F
:1039D8007B68DA63BB6803F02003002B05D07B68A3
:1039E800DB6B43F002027B68DA63BB6803F0010318
:1039F800002B05D07B68DB6B43F001027B68DA6340
:103A08007B681B6829229A607B68042283F8392026
:103A18007B68002283F83820012332E03B68B3F149
:103A2800FF3F1AD03B68002B07D0FFF7D3FA0246B6
:103A3800FB68D21A3B689A420FD97B68DB6B43F06C
:103A480020027B68DA637B68032283F839207B686D
:103A5800002283F83820032313E07B681B685B6827
:103A680003F01003002BA1D07B681B6812229A6018
:103A78007B68012283F839207B68002283F838208C
:103A8800002318461037BD4680BD80B584B000AF0E
:103A980078607B681B685B68FB607B681B681B68D9
:103AA800BB60FB6803F00103002B26D0BB6803F45E
:103AB8008073002B21D07B681B687A6812681268B3
:103AC80022F480721A607B68DB6B43F001027B682A
:103AD800DA637B681B6801229A607B68042283F89A
:103AE80039207B68002283F838207B685B69002BCB
:103AF80003D07B685B6978689847FB6803F020030C
:103B0800002B26D0BB6803F40053002B21D07B6820
:103B18001B687A681268126822F400521A607B687F
:103B28001B6820229A607B68DB6B43F002027B688B
:103B3800DA637B68042283F839207B68002283F8E3
:103B480038207B685B69002B03D07B685B697868E9
:103B58009847FB6803F00803002B26D0BB6803F4E2
:103B68000063002B21D07B681B687A681268126892
:103B780022F400621A607B681B6808229A607B68DE
:103B8800DB6B43F004027B68DA637B68042283F80A
:103B980039207B68002283F838207B685B69002B1A
:103BA80003D07B685B6978689847FB6803F0040377
:103BB800002B13D0BB6803F48063002B0ED07B6806
:103BC8001B687A681268126822F480621A607B683F
:103BD8001B6804229A60786800F053F8FB6803F0C9
:103BE8000203002B24D0BB6803F40073002B1FD002
:103BF8007B681B687A681268126822F400721A607F
:103C08007B681B6802229A607B68DA6B7B68DA63E0
:103C18007B68012283F839207B68002283F83820EA
:103C28007B681B69002B03D07B681B697868984701
:103C3800FB6803F01003002B1FD0BB6803F480530C
:103C4800002B1AD07B681B687A681268126822F405
:103C580080521A607B681B6810229A607B68DA6B56
:103C68007B68DA637B68012283F839207B6800224D
:103C780083F83820786800F00EF800BF1037BD468A
:103C880080BD80B483B000AF786000BF0C37BD46FC
:103C98005DF8047B704780B483B000AF786000BFE4
:103CA8000C37BD465DF8047B7047000080B487B0D0
:103CB80000AF786039603B681B0118337A68134499
:103CC8003B610023FB6000237B617B685B68B3F585
:103CD800403F7B6893F83830012B01D1022371E013
:103CE8007B68012283F838207B68022283F8392018
:103CF8003B695A683B699B681B0413437B61344BDF
:103D0800FB603B695B680A2B03D03B695B68092B46
:103D180007D13B69DB6803F07F437A6913437B6112
:103D280005E03B69DB681B067A6913437B613B68E6
:103D3800002B1FD17B681B687A681268516AFA6881
:103D4800D24311407A690A435A627B681B683A6910
:103D580012689A613B695B680A2B03D03B695B6810
:103D6800092B26D17B681B683A69D26822F07F420A
:103D78009A621EE07B681B687A681268D169FA68E3
:103D8800D24311407A690A43DA617B681B683A6951
:103D980012681A613B695B680A2B03D03B695B6850
:103DA800092B06D17B681B683A69D26822F07F42EA
:103DB8001A627B68012283F839207B68002283F825
:103DC8003820002318461C37BD465DF8047B704731
:103DD8000F0003FF80B48BB000AFF860B9607A6061
:103DE8003B6000237B6200233B620023FB610023CE
:103DF800BB6100237B61FB681B68FA681268526C20
:103E080002F040413A6810043A6B02430A435A648C
:103E1800FB681B687A68DA63FB685B68B3F5403F48
:103E280074D1BB6803F07F433B62BB6803F47F0334
:103E3800FB61BB6803F47F43BB61BB68DBB27B619A
:103E4800FB689B68002B08D1BA69FB691A433B6A77
:103E58001A437B6913437B6253E0FB689B68012B21
:103E680006D1BA69FB691A437B6913437B6248E050
:103E7800FB689B68022B11D1FB69DB0CFB61BB69FA
:103E88009B0ABB617B69DB087B61BB695A01FB69E3
:103E9800DB021A437B6913437B6232E0FB689B6851
:103EA800032B17D13B6ADB0F3B62FB69DB0CFB6121
:103EB800BB69DB0ABB617B69DB087B61BB695A01B3
:103EC800FB699B021A433B6ADB031A437B69134372
:103ED8007B6216E03B6A1B0F3B62FB691B0DFB61B3
:103EE800BB691B0BBB617B691B097B61BB691A0141
:103EF800FB691B021A433B6A1B031A437B69134382
:103F08007B62FB681B687A6A9A6303E0FB681B683C
:103F1800BA68DA6000BF2C37BD465DF8047B70478D
:103F280080B489B000AF786039600023FB6100235A
:103F38007B6100233B610023BB610023FB6175E1CA
:103F48000122FB6902FA03F37B613B681A687B690B
:103F580013403B613A697B699A4240F064813B684F
:103F68005B68022B03D03B685B68122B23D1FB698B
:103F7800DA087B68083253F82230BB61FB6903F02A
:103F880007039B000F2202FA03F3DB43BA691340CD
:103F9800BB613B681A69FB6903F007039B0002FADF
:103FA80003F3BA691343BB61FB69DA087B6808321B
:103FB800B96943F822107B681B68BB61FB695B0029
:103FC800032202FA03F3DB43BA691340BB613B687F
:103FD8005B6803F00302FB695B0002FA03F3BA694A
:103FE8001343BB617B68BA691A603B685B68012B45
:103FF8000BD03B685B68022B07D03B685B68112BD2
:1040080003D03B685B68122B30D17B689B68BB612F
:10401800FB695B00032202FA03F3DB43BA6913402E
:10402800BB613B68DA68FB695B0002FA03F3BA69B3
:104038001343BB617B68BA699A607B685B68BB6144
:104048000122FB6902FA03F3DB43BA691340BB613F
:104058003B685B681B0903F00102FB6902FA03F382
:10406800BA691343BB617B68BA695A607B68DB68CD
:10407800BB61FB695B00032202FA03F3DB43BA6905
:104088001340BB613B689A68FB695B0002FA03F363
:10409800BA691343BB617B68BA69DA603B685B68DD
:1040A80003F08053002B00F0BE80654A644B5B6CC4
:1040B80043F480435364624B5B6C03F48043FB60BE
:1040C800FB68604AFB699B08023352F82330BB61E6
:1040D800FB6903F003039B000F2202FA03F3DB439F
:1040E800BA691340BB617B68574A934237D07B68F3
:1040F800564A934231D07B68554A93422BD07B680D
:10410800544A934225D07B68534A93421FD07B6818
:10411800524A934219D07B68514A934213D07B6824
:10412800504A93420DD07B684F4A934207D07B6830
:104138004E4A934201D1092312E00A2310E00823D2
:104148000EE007230CE006230AE0052308E0042319
:1041580006E0032304E0022302E0012300E0002339
:10416800FA6902F0030292009340BA691343BB61F3
:104178003449FB699B080233BA6941F823203C4B58
:104188001B68BB613B69DB43BA691340BB613B6891
:104198005B6803F48033002B03D0BA693B6913438F
:1041A800BB61334ABB691360314B5B68BB613B69D8
:1041B800DB43BA691340BB613B685B6803F40033B7
:1041C800002B03D0BA693B691343BB61284ABB691A
:1041D8005360274B9B68BB613B69DB43BA6913405B
:1041E800BB613B685B6803F48013002B03D0BA699A
:1041F8003B691343BB611E4ABB6993601C4BDB6878
:10420800BB613B69DB43BA691340BB613B685B68D0
:1042180003F40013002B03D0BA693B691343BB6155
:10422800134ABB69D360FB690133FB61FB690F2B40
:104238007FF686AE00BF2437BD465DF8047B704725
:1042480000380240003801400000024000040240EB
:1042580000080240000C0240001002400014024016
:1042680000180240001C02400020024000240240C6
:10427800003C014080B485B000AF78600B467B807D
:104288007B681A697B881340002B02D00123FB73DB
:1042980001E00023FB73FB7B18461437BD465DF82D
:1042A800047B704780B483B000AF78600B467B8096
:1042B80013467B707B78002B03D07A887B689A61E1
:1042C80003E07B881A047B689A6100BF0C37BD46FF
:1042D8005DF8047B7047000080B582B000AF78605D
:1042E8007B68002B01D101237EE07B6893F8413085
:1042F800DBB2002B06D17B68002283F84020786867
:1043080000F0A7F87B68242283F841207B681B68AB
:104318007A681268126822F001021A607B681B68CA
:104328007A68526822F070621A617B681B687A6842
:104338001268926822F400429A607B68DB68012B5D
:1043480007D17B681B687A68926842F400429A60D9
:1043580006E07B681B687A68926842F404429A60B7
:104368007B68DB68022B04D17B681B684FF4006212
:104378005A607B681A687B681B6859681C4B0B433A
:1043880053607B681B687A681268D26822F400421E
:10439800DA607B681B687A6811697A685269114328
:1043A8007A68926912020A43DA607B681B687A6845
:1043B800D1697A68126A0A431A607B681B687A684E
:1043C8001268126842F001021A607B6800225A647F
:1043D8007B68202283F841207B6800221A637B686F
:1043E800002283F84220002318460837BD4680BDC6
:1043F8000080000280B582B000AF78607B68002B37
:1044080001D1012321E07B68242283F841207B68C5
:104418001B687A681268126822F001021A607868CC
:1044280000F021F87B6800225A647B68002283F838
:1044380041207B6800221A637B68002283F84220AF
:104448007B68002283F84020002318460837BD46C1
:1044580080BD80B483B000AF786000BF0C37BD4624
:104468005DF8047B704780B483B000AF786000BF0C
:104478000C37BD465DF8047B7047000080B588B0F6
:1044880002AFF860084611461A4603467B810B4680
:104498003B811346FB8000237B61FB6893F8413026
:1044A800DBB2202B40F009813B6A002B02D0BB8C89
:1044B800002B01D1012301E1FB6893F84030012B67
:1044C80001D10223FAE0FB68012283F84020FEF7BD
:1044D80081FD78617B690093192301224FF4004123
:1044E800F86800F009FB0346002B01D00323E5E040
:1044F800FB68212283F84120FB68402283F8422090
:10450800FB6800225A64FB683A6A5A62FB68BA8CF4
:104518005A85FB6800225A63F8883A8979897B6949
:104528000193BB6A00930346F86800F001FA03465A
:10453800002B0FD0FB685B6C042B05D1FB680022B5
:1045480083F840200123B9E0FB68002283F840206B
:104558000323B3E0FB685B8D9BB2FF2B0ED9FB688E
:10456800FF221A85FB681B8DDAB279890023009334
:104578004FF08073F86800F0D3FB0FE0FB685B8DA9
:104588009AB2FB681A85FB681B8DDAB27989002319
:1045980000934FF00073F86800F0C2FB7A69B96ABB
:1045A800F86800F0E3FA0346002B07D0FB685B6C61
:1045B800042B01D1012381E003237FE0FB681A6803
:1045C800FB685B6A581CF96848621B789362FB6851
:1045D8005B8D9BB2013B9AB2FB685A85FB681B8DC9
:1045E800013B9AB2FB681A85FB681B8D002B35D1FD
:1045F800FB685B8D9BB2002B30D07B690093BB6A54
:1046080000228021F86800F077FA0346002B01D0D9
:10461800032353E0FB685B8D9BB2FF2B0ED9FB682D
:10462800FF221A85FB681B8DDAB279890023009373
:104638004FF08073F86800F073FB0FE0FB685B8D48
:104648009AB2FB681A85FB681B8DDAB27989002358
:1046580000934FF00073F86800F062FBFB685B8D15
:104668009BB2002B9AD17A69B96AF86800F0BEFA51
:104678000346002B07D0FB685B6C042B01D1012398
:104688001CE003231AE0FB681B682022DA61FB6840
:104698001A68FB681B6859680A4B0B405360FB6833
:1046A800202283F84120FB68002283F84220FB681F
:1046B800002283F84020002300E002231846183720
:1046C800BD4680BD00E800FE80B588B002AFF86046
:1046D800084611461A4603467B810B463B81134622
:1046E800FB8000237B61FB6893F84130DBB2202B11
:1046F80040F007813B6A002B02D0BB8C002B01D114
:104708000123FFE0FB6893F84030012B01D102231D
:10471800F8E0FB68012283F84020FEF75BFC786133
:104728007B690093192301224FF40041F86800F0D7
:10473800E3F90346002B01D00323E3E0FB682222C0
:1047480083F84120FB68402283F84220FB6800225E
:104758005A64FB683A6A5A62FB68BA8C5A85FB68E5
:1047680000225A63F8883A8979897B690193BB6A80
:1047780000930346F86800F03BF90346002B0FD07E
:10478800FB685B6C042B05D1FB68002283F8402092
:104798000123B7E0FB68002283F840200323B1E03F
:1047A800FB685B8D9BB2FF2B0ED9FB68FF221A8535
:1047B800FB681B8DDAB27989544B00934FF08073F4
:1047C800F86800F0ADFA0FE0FB685B8D9AB2FB6801
:1047D8001A85FB681B8DDAB279894C4B00934FF030
:1047E8000073F86800F09CFA7B690093BB6A0022AA
:1047F8000421F86800F080F90346002B01D0032358
:1048080080E0FB685B6A591CFA685162FA681268B2
:10481800526AD2B21A70FB681B8D013B9AB2FB68D0
:104828001A85FB685B8D9BB2013B9AB2FB685A857F
:10483800FB681B8D002B35D1FB685B8D9BB2002B71
:1048480030D07B690093BB6A00228021F86800F0B1
:1048580053F90346002B01D0032353E0FB685B8D1B
:104868009BB2FF2B0ED9FB68FF221A85FB681B8DB4
:10487800DAB27989002300934FF08073F86800F06A
:104888004FFA0FE0FB685B8D9AB2FB681A85FB68EC
:104898001B8DDAB27989002300934FF00073F86812
:1048A80000F03EFAFB685B8D9BB2002B9CD17A69C5
:1048B800B96AF86800F09AF90346002B07D0FB683C
:1048C8005B6C042B01D101231CE003231AE0FB6875
:1048D8001B682022DA61FB681A68FB681B68596844
:1048E8000B4B0B405360FB68202283F84120FB6888
:1048F800002283F84220FB68002283F8402000232E
:1049080000E0022318461837BD4680BD0024008009
:1049180000E800FE80B483B000AF78607B6893F84D
:104928004130DBB218460C37BD465DF8047B704752
:1049380080B586B002AFF860084611461A460346AD
:104948007B810B463B811346FB80FB88DAB2798971
:10495800264B00934FF08073F86800F0E1F9FA698C
:10496800B969F86800F002F90346002B07D0FB6824
:104978005B6C042B01D1012334E0032332E0FB8874
:10498800012B05D1FB681B683A89D2B29A621BE0F9
:10499800FB681B683A89120A92B2D2B29A62FA6923
:1049A800B969F86800F0E2F80346002B07D0FB6805
:1049B8005B6C042B01D1012314E0032312E0FB6894
:1049C8001B683A89D2B29A62FB690093BB690022DC
:1049D8008021F86800F090F80346002B01D00323EB
:1049E80000E0002318461037BD4680BD0020008037
:1049F80080B586B002AFF860084611461A460346ED
:104A08007B810B463B811346FB80FB88DAB27989B0
:104A1800264B00930023F86800F082F9FA69B96917
:104A2800F86800F0A3F80346002B07D0FB685B6C1E
:104A3800042B01D1012334E0032332E0FB88012B4E
:104A480005D1FB681B683A89D2B29A621BE0FB6801
:104A58001B683A89120A92B2D2B29A62FA69B969A3
:104A6800F86800F083F80346002B07D0FB685B6CFE
:104A7800042B01D1012314E0032312E0FB681B6817
:104A88003A89D2B29A62FB690093BB69002240213D
:104A9800F86800F031F80346002B01D0032300E04A
:104AA800002318461037BD4680BD00BF0020008097
:104AB80080B483B000AF78607B681B689B6903F0A3
:104AC8000203022B03D17B681B6800229A627B6871
:104AD8001B689B6903F00103012B07D07B681B68E7
:104AE8007A681268926942F001029A6100BF0C3735
:104AF800BD465DF8047B704780B584B000AFF860B0
:104B0800B9603B601346FB711CE03B68B3F1FF3FA3
:104B180018D03B68002B07D0FEF75CFA0246BB6949
:104B2800D21A3B689A420DD9FB68202283F84120AB
:104B3800FB68002283F84220FB68002283F84020AB
:104B480003230FE0FB681B689A69BB681A40BB68BF
:104B58009A420CBF01230023DBB21A46FB799A4222
:104B6800D3D0002318461037BD4680BD80B584B029
:104B780000AFF860B9607A602CE07A68B968F868C4
:104B880000F070F80346002B01D001232AE0BB682F
:104B9800B3F1FF3F1ED0BB68002B07D0FEF71AFA0F
:104BA80002467B68D21ABB689A4213D9FB685B6CD1
:104BB80043F02002FB685A64FB68202283F84120F6
:104BC800FB68002283F84220FB68002283F840201B
:104BD800032307E0FB681B689B6903F00203022BB1
:104BE800CBD1002318461037BD4680BD80B584B0B0
:104BF80000AFF860B9607A6028E07A68B968F86848
:104C080000F030F80346002B01D0012326E0BB68F2
:104C1800002B07D0FEF7DEF902467B68D21ABB6884
:104C28009A4213D9FB685B6C43F02002FB685A6414
:104C3800FB68202283F84120FB68002283F8422089
:104C4800FB68002283F84020032307E0FB681B6809
:104C58009B6903F02003202BCFD10023184610377F
:104C6800BD4680BD80B584B000AFF860B9607A6099
:104C7800FB681B689B6903F01003102B48D11CE0EC
:104C8800BB68B3F1FF3F18D0BB68002B07D0FEF715
:104C9800A1F902467B68D21ABB689A420DD9FB6813
:104CA800202283F84120FB68002283F84220FB6819
:104CB800002283F8402003232BE0FB681B689B69D4
:104CC80003F02003202BDBD1FB681B681022DA617C
:104CD800FB681B682022DA61F868FFF7E9FEFB68C9
:104CE8001A68FB681B6859680C4B0B405360FB68DB
:104CF80004225A64FB68202283F84120FB680022C2
:104D080083F84220FB68002283F84020012300E05A
:104D1800002318461037BD4680BD00BF00E800FEDE
:104D280080B485B000AFF8607B600B467B8113468A
:104D38007B72FB681A68FB681B685968BB695B0D66
:104D480003F480600B4B0343DB4319407B89C3F3B7
:104D580009007B7A1B0403F47F0318437B6818431C
:104D6800BB6903430B43536000BF1437BD465DF86E
:104D7800047B7047FF63FF0380B584B000AF7860A1
:104D88000023FB600023BB607B68002B01D101235B
:104D9800C7E07B6893F8A130DBB2002B06D17B68B3
:104DA800002283F8A020786804F082FE7B68022243
:104DB80083F8A1207B681B687A681268926922F0E0
:104DC80070429A617B681B687A68126891697A6890
:104DD80050687A68926810437A68D26810437A6893
:104DE800126902430A439A617B681A687B681B68E8
:104DF80099684E4B0B4093607B685B691B04FB60B2
:104E08007B681B687A68126891687A689069FA68A2
:104E180002430A439A607B681A687B681B68D968F2
:104E2800424B0B40D3607B68DB691B04FB607B68EB
:104E38001B687A681268D1687A68106AFA6802434F
:104E48000A43DA607B681A687B681B681969374B04
:104E58000B4013617B685B6A1B04FB607B681B6803
:104E68007A68126811697A68906AFA6802430A4394
:104E78001A617B681A687B681B6859692B4B0B4061
:104E880053617B68DB6A1B04FB607B681B687A687C
:104E9800126851697A68106BFA6802430A435A61CA
:104EA8007B6893F835301B02FB607B6893F83630DB
:104EB8001B04BB607B681B687A681268D26A02F0C0
:104EC8007F42DA627B681B687A681268D16AB868C0
:104ED800FA680243786890F8340002430A43DA62B9
:104EE8007B681B687A681268526B42F004025A6346
:104EF8007B681B687A681268526B42F002025A6338
:104F08007B681B687A681268926942F001029A61AC
:104F18007B680022C3F8A4207B68012283F8A120C3
:104F2800002318461037BD4680BD00BF00F800F0CA
:104F380080B582B000AF78607B681B689B6B03F01C
:104F48000403002B25D07B681B689B6B03F00403CC
:104F5800002B1ED07B681B687A681268526B22F09F
:104F680004025A637B681B680422DA637B68D3F8FF
:104F7800A43043F001027B68C3F8A4207B680422B4
:104F880083F8A1207B68002283F8A020786800F0CD
:104F98007BF87B681B689B6B03F00203002B25D012
:104FA8007B681B689B6B03F00203002B1ED07B6899
:104FB8001B687A681268526B22F002025A637B6897
:104FC8001B680222DA637B68D3F8A43043F002023C
:104FD8007B68C3F8A4207B68042283F8A1207B683F
:104FE800002283F8A020786800F04EF87B681B68E0
:104FF8009B6B03F00103002B1DD07B681B689B6B28
:1050080003F00103002B16D07B681B687A681268CE
:10501800526B22F001025A637B681B680122DA6333
:105028007B68012283F8A1207B68002283F8A020F6
:10503800786800F033F87B681B689B6B03F0080303
:10504800002B1DD07B681B689B6B03F00803002BAB
:1050580016D07B681B687A681268526B22F00802C7
:105068005A637B681B680822DA637B68012283F82D
:10507800A1207B68002283F8A020786800F018F847
:1050880000BF0837BD4680BD80B483B000AF7860EC
:1050980000BF0C37BD465DF8047B704780B483B011
:1050A80000AF786000BF0C37BD465DF8047B7047E1
:1050B80080B483B000AF786000BF0C37BD465DF8A0
:1050C800047B7047B0B584B000AFF860B9607A600F
:1050D800FB6893F8A030012B01D102232CE0FB6878
:1050E800012283F8A020FB68022283F8A120FA6835
:1050F8007B68342101FB03F3134403F13802BB68D6
:1051080014461D460FCD0FC40FCD0FC40FCD0FC4CD
:105118002B6823607A68B968F86800F01FF8FB68A4
:105128001B6801225A62FB68012283F8A120FB68F0
:10513800002283F8A020002318461037BD46B0BDD2
:1051480080B483B000AF78607B6893F8A130DBB29D
:1051580018460C37BD465DF8047B704780B489B0AB
:1051680000AFF860B9607A600023FB610023BB617F
:1051780000237B61BB685A68FB681B68DB681B0CF3
:10518800C3F30B0313441B04FB61FB681B681A463B
:105198007B68DB01134484331A46FB681B68194695
:1051A8007B68DB010B4484335B6803F47043536012
:1051B800FB681B681A467B68DB0113448433194675
:1051C800BB681A68FB681B68DB681B0CC3F30B031E
:1051D80013445A1CFB6913434B60BB68DA68FB68CD
:1051E8001B68DB68C3F30A0313441B04FB61FB68F9
:1051F8001B681A467B68DB01134484331A46FB6834
:105208001B6819467B68DB010B4484339B6803F4F5
:1052180070439360FB681B681A467B68DB01134484
:1052280084331946BB689A68FB681B68DB68C3F35C
:105238000A0313445A1CFB6913438B60FB681B6801
:105248001A467B68DB01134484331A46FB681B68E3
:1052580019467B68DB010B4484331B6923F0070381
:105268001361FB681B681A467B68DB0113448433AF
:105278001A46BB681B691361BB6893F831301B027F
:10528800FB61BB6893F832301B04BB61BB689B6948
:105298001B067B61FB681B681A467B68DB011344AD
:1052A80084339B69FB681B681A467B68DB011344DF
:1052B80084331A4600239361FB681B681A467B688F
:1052C800DB01134484331946BB6893F830301A461F
:1052D800FB691A43BB691A437B6913438B61FB68FB
:1052E8001B681A467B68DB01134484331A46FB6843
:1052F8001B6819467B68DB010B4484335B6923F028
:10530800FF035361FB681B681A467B68DB01134483
:1053180084331A46BB685B695361FB681B681A468D
:105328007B68DB01134484331946FB681B681A4603
:105338007B68DB0113448433DA695A4B1340CB6131
:10534800FB681B681A467B68DB01134484331946E3
:10535800BB68DA69BB681B6A1343CB61FB681B68CF
:105368001A467B68DB01134484339B6AFB681B681D
:105378001A467B68DB01134484331A460023936280
:10538800FB681B681A467B68DB01134484331A46A2
:10539800BB685B6A9362BB681B69002B02D104235C
:1053A800FB611BE0BB681B69012B02D10323FB6176
:1053B80014E0BB681B69042B0BD0BB681B69022B6C
:1053C80007D0BB681B69032B03D0BB681B69072B7D
:1053D80002D10223FB6101E00123FB61FB681B682A
:1053E8001A467B68DB01134484331A46FB681B6842
:1053F80019467B68DB010B448433DB6A03F0E02346
:10540800D362FB681B681A467B68DB01134484334C
:105418001846BB689B6AFA6902FB03F31A04BB6867
:105428005968BB681B68CB1AF96901FB03F303339E
:105438001343C362FB681B681A467B68DB0113448D
:1054480084331946FB681B681A467B68DB011344E2
:1054580084331A6B144B13400B63FB681B681A46A2
:105468007B68DB01134484331A46BB68DB6A136329
:10547800FB681B681A467B68DB01134484331A46B1
:10548800FB681B6819467B68DB010B4484331B6887
:1054980043F00103136000BF2437BD465DF8047B69
:1054A800704700BFF8F8FFFF00F8FFFF80B582B033
:1054B80000AF00237B60234A224B1B6C43F08053D0
:1054C8001364204B1B6C03F080533B603B681E4AFF
:1054D8001D4B1B6843F480331360FDF77BFD786038
:1054E80009E0FDF777FD02467B68D31AB3F57A7FAA
:1054F80001D9032322E0144B5B6803F48033B3F52E
:10550800803FEED1104A104B1B6843F40033136000
:10551800FDF760FD786009E0FDF75CFD02467B68F9
:10552800D31AB3F57A7F01D9032307E0064B5B68EA
:1055380003F40033B3F5003FEED1002318460837D3
:10554800BD4680BD003802400070004080B586B07E
:1055580000AF78600023FB757B68002B01D1012325
:105568005CE27B681B6803F00103002B00F0878076
:10557800964B9B6803F00C03042B0CD0934B9B6851
:1055880003F00C03082B12D1904B5B6803F48003E3
:10559800B3F5800F0BD18D4B1B6803F40033002B40
:1055A8006CD07B685B68002B68D1012336E27B688E
:1055B8005B68B3F5803F06D1844A844B1B6843F48B
:1055C800803313602EE07B685B68002B0CD17F4A28
:1055D8007E4B1B6823F4803313607C4A7B4B1B682B
:1055E80023F4802313601DE07B685B68B3F5A02F6C
:1055F8000CD1764A754B1B6843F480231360734AB9
:10560800724B1B6843F4803313600BE06F4A6F4B97
:105618001B6823F4803313606C4A6C4B1B6823F4BB
:10562800802313607B685B68002B13D0FDF7D2FCE6
:10563800386108E0FDF7CEFC02463B69D31A642BBB
:1056480001D90323EAE1614B1B6803F40033002B03
:10565800F0D014E0FDF7BEFC386108E0FDF7BAFCB5
:1056680002463B69D31A642B01D90323D6E1574B71
:105678001B6803F40033002BF0D100E000BF7B6807
:105688001B6803F00203002B69D0504B9B6803F0A2
:105698000C03002B0BD04D4B9B6803F00C03082B1D
:1056A8001CD14A4B5B6803F48003002B16D1474B8F
:1056B8001B6803F00203002B05D07B68DB68012B15
:1056C80001D00123AAE14149404B1B6823F0F802AD
:1056D8007B681B69DB0013430B6040E07B68DB6879
:1056E800002B23D0394A394B1B6843F00103136060
:1056F800FDF770FC386108E0FDF76CFC02463B6979
:10570800D31A022B01D9032388E1304B1B6803F01D
:105718000203002BF0D02D492C4B1B6823F0F80214
:105728007B681B69DB0013430B6018E0274A274B93
:105738001B6823F001031360FDF74CFC386108E097
:10574800FDF748FC02463B69D31A022B01D9032313
:1057580064E11E4B1B6803F00203002BF0D17B6849
:105768001B6803F00803002B38D07B685B69002BAB
:1057780019D0164A154B5B6F43F001035367FDF7C9
:1057880029FC386108E0FDF725FC02463B69D31A7D
:10579800022B01D9032341E10C4B5B6F03F0020399
:1057A800002BF0D01AE0094A084B5B6F23F0010385
:1057B8005367FDF70FFC38610AE0FDF70BFC024662
:1057C8003B69D31A022B03D9032327E1003802408F
:1057D800944B5B6F03F00203002BEED17B681B68D0
:1057E80003F00403002B00F0A4808E4B1B6C03F025
:1057F8008053002B0DD18B4A8A4B1B6C43F080538E
:105808001364884B1B6C03F08053FB60FB68012317
:10581800FB75854B1B6803F48073002B18D1824AF3
:10582800814B1B6843F480731360FDF7D3FB386129
:1058380008E0FDF7CFFB02463B69D31A642B01D978
:105848000323EBE0784B1B6803F48073002BF0D044
:105858007B689B68012B06D1724A724B1B6F43F021
:10586800010313672DE07B689B68002B0CD16D4A00
:105878006C4B1B6F23F0010313676A4A694B1B6F5C
:1058880023F0040313671CE07B689B68052B0CD18D
:10589800644A644B1B6F43F004031367614A614B0E
:1058A8001B6F43F0010313670BE05E4A5D4B1B6FF0
:1058B80023F0010313675B4A5A4B1B6F23F0040361
:1058C80013677B689B68002B15D0FDF783FB386155
:1058D8000AE0FDF77FFB02463B69D31A41F28832A2
:1058E800934201D9032399E04E4B1B6F03F0020347
:1058F800002BEED014E0FDF76DFB38610AE0FDF7F0
:1059080069FB02463B69D31A41F28832934201D9B6
:10591800032383E0434B1B6F03F00203002BEED1FC
:10592800FB7D012B05D13F4A3E4B1B6C23F0805376
:1059380013647B689B69002B6FD03A4B9B6803F01C
:105948000C03082B67D07B689B69022B49D1354A29
:10595800344B1B6823F080731360FDF73BFB386101
:1059680008E0FDF737FB02463B69D31A022B01D941
:10597800032353E02B4B1B6803F00073002BF0D17B
:1059880028497B68DA697B681B6A1A437B685B6A0B
:105998009B011A437B689B6A5B08013B1B041A4303
:1059A8007B68DB6A1B06134343F000534B601D4AB8
:1059B8001C4B1B6843F080731360FDF70BFB3861C9
:1059C80008E0FDF707FB02463B69D31A022B01D911
:1059D800032323E0134B1B6803F00073002BF0D064
:1059E8001BE0104A0F4B1B6823F080731360FDF710
:1059F800F1FA386108E0FDF7EDFA02463B69D31A7F
:105A0800022B01D9032309E0064B1B6803F000733E
:105A1800002BF0D101E0012300E0002318461837DD
:105A2800BD4680BD003802400070004080B584B09B
:105A380000AF786039600023FB607B68002B01D1E0
:105A48000123CEE0694B1B6803F00F023B689A42C2
:105A580010D26649654B1B6823F00F023B6813435D
:105A68000B60624B1B6803F00F023B689A4201D03F
:105A78000123B6E07B681B6803F00203002B20D0EB
:105A88007B681B6803F00403002B05D0584A584B69
:105A98009B6843F4E05393607B681B6803F008033A
:105AA800002B05D0524A524B9B6843F460439360E5
:105AB8004F494F4B9B6823F0F0027B689B68134368
:105AC8008B607B681B6803F00103002B40D07B6868
